:020000020000FC
:02000000FFC03F
:0200040018C121
:0200080020C115
:10020000889889988A988B9800271FEF00BF12BBA7
:1002100000B3102F0170013021F01270123009F07C
:10022000F7CF00EC12E00BBF15BF50E065E06EBFEA
:100230005DBF7894FFCFD89A0BD0D89809D008D05A
:1002400007D0D99A05D0D9981895D89A0ED0D898B1
:1002500020EB23951FE01395002703950F3FE9F747
:100260001F3FC9F72F3FA9F708952DE823951127C0
:100270001395002703950F3FE9F71F3FC9F72F3F5D
:04028000A9F708953D
:00000001FF
